:020000040800F2
:1000000000000220B1660008FD63000805640008D6
:100010000D640008156400081D640008000000005D
:10002000000000000000000000000000256400083F
:100030003364000800000000416400084F640008B9
:1000400001670008016700080167000801670008F0
:1000500001670008016700080167000801670008E0
:1000600001670008016700080167000801670008D0
:1000700001670008016700080167000801670008C0
:1000800001670008016700080167000801670008B0
:1000900001670008016700080167000801670008A0
:1000A0000167000801670008016700080167000890
:1000B0000167000801670008016700080167000880
:1000C0000167000801670008016700080167000870
:1000D0000167000801670008016700080167000860
:1000E00001670008016700080000000001670008C0
:1000F000855F0008016700080167000801670008C4
:10010000016700080167000801670008016700082F
:10011000016700080167000801670008016700081F
:10012000016700080167000801670008016700080F
:1001300001670008016700080167000801670008FF
:1001400000000000000000000000000000000000AF
:1001500001670008016700080167000801670008DF
:1001600001670008016700080167000801670008CF
:1001700001670008016700080167000801670008BF
:1001800001670008016700080167000801670008AF
:10019000016700080167000801670008016700089F
:1001A000016700080167000801670008016700088F
:1001B000016700080167000801670008016700087F
:1001C000016700080167000801670008016700086F
:1001D000016700080167000801670008016700085F
:1001E000016700080167000801670008016700084F
:1001F000016700080167000801670008016700083F
:10020000016700080167000801670008016700082E
:10021000016700080167000801670008016700081E
:10022000016700080167000801670008000000007E
:10023000016700080167000800000000016700086E
:1002400001670008016700080167000801670008EE
:1002500001670008016700080167000801670008DE
:1002600001670008016700080167000801670008CE
:10027000016700080167000801670008000000002E
:10028000016700080167000801670008000000001E
:080290000000000001670008F6
:1002980053B94AB9002908BF00281CBF4FF0FF31E5
:1002A8004FF0FF3000F00CB8ADF1080C6DE904CE4A
:1002B80006F024FADDF804E0DDE9022304B0704713
:1002C800704700BF0348044B834202D0034B03B17D
:1002D800184770476C0000206C00002000000000E8
:1002E8000548064B1B1AD90F01EBA301491002D090
:1002F800034B03B1184770476C0000206C000020C6
:100308000000000010B5064C237843B9FFF7DAFF68
:10031800044B13B10448AFF300800123237010BDD0
:100328006C00002000000000B86C000808B5054B00
:100338001BB105490548AFF30080BDE80840FFF749
:10034800CFBF00BF0000000070000020B86C00089C
:10035800002310B50446C0E90033C0E904338360C4
:1003680081814366C2818361194608225C3000F0AE
:10037800F4F80D4B63620D4BA3620D4BE3620D4B1A
:1003880023630D4B24629C4206D003F16802944219
:1003980002D0D0339C4205D104F15800BDE810408A
:1003A80000F04EB910BD00BFDD040008FF040008CE
:1003B800370500085B05000888000020024A034949
:1003C800034800F069B800BF000000204909000890
:1003D8001000002041680C4B994210B5044601D02A
:1003E80000F0AEFAA168094B994202D0204600F00D
:1003F800A7FAE168064B994204D02046BDE81040B0
:1004080000F09EBA10BD00BF88000020F000002058
:100418005801002010B50B4B0B4C0C4A1A602046B3
:1004280000220421FFF794FF04F16800012209214A
:10043800FFF78EFF04F1D0000222BDE81040122120
:10044800FFF786BFC001002088000020C503000810
:10045800014800F0F6B800BFC9010020014800F0CB
:10046800F1B800BFC901002010B50446FFF7F0FF3E
:10047800236A1BB1BDE81040FFF7F0BF044B2362AD
:10048800044B1B68002BF5D1FFF7C4FFF2E700BF50
:10049800DD030008C00100202DE9F843074688461F
:1004A80014460026D4E90195B9F1010905D5246857
:1004B800002CF7D13046BDE8F883AB89012B07D96A
:1004C800B5F90E30013303D029463846C0470643F4
:1004D8006835E9E710B50C46B1F90E1000F068F878
:1004E8000028ABBF636DA3891B1823F48053ACBFEE
:1004F8006365A38110BD2DE9F0411F468B89DB059B
:1005080005460C46164605D5B1F90E100223002201
:1005180000F03CF8A389B4F90E1023F48053A381AA
:1005280032463B462846BDE8F04100F053B810B5C6
:100538000C46B1F90E1000F029F8431CA38915BF29
:10054800606523F4805343F48053A38118BFA381CB
:1005580010BDB1F90E1000F009B8024403469342E9
:1005680000D1704703F8011BF9E7000038B5064DC4
:100578000023044608462B6005F0A4FF431C02D163
:100588002B6803B1236038BDC401002038B5074D7E
:1005980004460846114600222A601A4605F0B9FFAB
:1005A800431C02D12B6803B1236038BDC40100206D
:1005B80038B5074D04460846114600222A601A46F7
:1005C80005F047FF431C02D12B6803B1236038BDF7
:1005D800C401002038B5074D0446084611460022DC
:1005E8002A601A4605F052FF431C02D12B6803B15A
:1005F800236038BDC401002070B50D4D0D4C641B3F
:10060800A4100026A64209D10B4D0C4C06F050FB55
:10061800641BA4100026A64205D170BD55F8043B02
:1006280098470136EEE755F8043B98470136F2E75C
:10063800506D0008506D0008506D0008546D00089A
:10064800704770477047000038B50546002941D00B
:1006580051F8043C0C1F002BB8BFE41800F0E0F878
:100668001D4A136833B9636014602846BDE83840F2
:1006780000F0DCB8A34208D9206821188B4201BFDA
:1006880019685B6809182160EDE71A465B680BB1C9
:10069800A342FAD911685018A0420BD1206801442E
:1006A800501883421160E0D118685B6853600844B1
:1006B8001060DAE702D90C232B60D6E720682118EE
:1006C8008B4204BF19685B68636004BF0918216026
:1006D8005460CAE738BD00BFD001002070B50F4E86
:1006E8000C463168054611B900F052F930602146D0
:1006F800284600F04DF9431C03D14FF0FF34204643
:1007080070BDC41C24F00304A042F8D0211A284666
:1007180000F03EF90130F2D1EFE700BFCC01002034
:100728002DE9F843CD1C25F0030508350C2D38BFFD
:100738000C25002D064601DBA94204D90C233360A1
:100748000020BDE8F883DFF8D48000F069F8D8F815
:1007580000301C4644BB29463046FFF7BFFF431C08
:10076800044658D1D8F800402746002F43D1002C22
:100778004BD023683946304604EB030900F008F9EA
:10078800814542D121686D1A29463046FFF7A6FFF8
:1007980001303AD023682B442360D8F800305A68D7
:1007A80062BBC8F800700FE02268521B20D40B2AE5
:1007B80017D96119A342256018BF5960636808BF3B
:1007C800C8F8001062514B60304600F02FF804F171
:1007D8000B00231D20F00700C21A1CBF1B1AA350D0
:1007E800AFE76268A3420CBFC8F800205A60EBE785
:1007F80023466468AEE73C467F68B6E71A465B68FE
:10080800A342FBD100235360DEE70C23336030465C
:1008180000F00CF894E70560D6E700BFD00100208F
:100828000148FFF70EBF00BFC80100200148FFF7CD
:1008380009BF00BFC8010020B1F90C202DE9F04123
:10084800160705460C4654D44B68002B02DC0B6C8B
:10085800002B48DDE66A002E45D0002312F48052B2
:100868002F68216A2B6030D0626DA389590705D59E
:100878006368D21A636B0BB1236CD21A0023E66A41
:10088800216A2846B047431CA38906D129681D2937
:100898002BD82A4ACA40D60727D500226260D90435
:1008A8002269226004D5421C01D12B6803B9606516
:1008B800616B2F60B9B104F14403994202D0284614
:1008C800FFF7C2FE002363630DE001232846B0470B
:1008D8000246501CC9D12B68002BC6D01D2B01D055
:1008E800162B1ED12F60002022E043F040031BB2DC
:1008F8001BE00F69002FF6D093070E6808BF4B69FD
:100908000F6018BF0023A6EB07088B60B8F1000F33
:10091800E9DD216AA66A43463A462846B0470028D8
:1009280008DCB4F90C3043F04003A3814FF0FF30EA
:10093800BDE8F0810744A8EB0008E7E70100402084
:1009480038B50B6905460C4613B90025284638BD4D
:1009580018B1036A0BB9FFF787FDB4F90C30002B07
:10096800F3D0626ED00704D4990502D4A06DFFF7C6
:1009780068FE28462146FFF75FFF636EDA070546E3
:10098800E4D4A3899B05E1D4A06DFFF75BFEDDE706
:1009980038B5064D0023044608462B6005F0C6FD11
:1009A800431C02D12B6803B1236038BDC401002069
:1009B80080B582B000AF032000F06EF901F0C6FDEB
:1009C8000246154B9B691B0A03F00F031349CB5CC6
:1009D80003F01F0322FA03F37B600F4B9B6903F0BC
:1009E8000F030E4AD35C03F01F037A6822FA03F35D
:1009F8000B4A13600B4A7B6813600F2000F014F851
:100A08000346002B01D0012302E005F0CBFB0023B5
:100A180018460837BD4680BD00440258386D0008A6
:100A2800680000206400002080B582B000AF7860C4
:100A3800154B1B78002B01D1012321E0134B1A68B9
:100A4800114B1B7819464FF47A73B3FBF1F3B2FBE1
:100A5800F3F3184600F045F90346002B01D00123B3
:100A68000EE07B680F2B0AD8002279684FF0FF3020
:100A780000F01DF9064A7B681360002300E001239B
:100A880018460837BD4680BD60000020640000207D
:100A98005C00002080B400AF064B1B781A46064B5A
:100AA8001B681344044A136000BFBD465DF8047B0D
:100AB800704700BF60000020D401002080B400AF60
:100AC800034B1B681846BD465DF8047B704700BFA2
:100AD800D401002080B584B000AF7860FFF7EEFF46
:100AE800B8607B68FB60FB68B3F1FF3F05D00A4B39
:100AF8001B781A46FB681344FB6000BFFFF7DEFF54
:100B08000246BB68D31AFA689A42F7D800BF00BFFA
:100B18001037BD4680BD00BF6000002080B400AF24
:100B2800034B1B681B0C1846BD465DF8047B7047D9
:100B38000010005C80B485B000AF78607B6803F07B
:100B48000703FB600B4BDB68BB60BA684FF6FF031B
:100B58001340BB60FB681A02BB681A43064B134379
:100B6800BB60044ABB68D36000BF1437BD465DF85C
:100B7800047B704700ED00E00000FA0580B400AF88
:100B8800044BDB681B0A03F007031846BD465DF8F3
:100B9800047B704700ED00E080B483B000AF0346EB
:100BA8003960FB80B7F90630002B0ADB3B68DAB204
:100BB8000C49B7F906301201D2B20B4483F800236E
:100BC8000AE03B68DAB20849FB8803F00F03043BEC
:100BD8001201D2B20B441A7600BF0C37BD465DF83D
:100BE800047B704700E100E000ED00E080B489B0CC
:100BF80000AFF860B9607A60FB6803F00703FB6137
:100C0800FB69C3F10703042B28BF0423BB61FB69FD
:100C18000433062B02D9FB69033B00E000237B6108
:100C28004FF0FF32BB6902FA03F3DA43BB681A409C
:100C38007B699A404FF0FF317B6901FA03F3D9438E
:100C48007B680B40134318462437BD465DF8047B88
:100C58007047000080B582B000AF78607B68013BC8
:100C6800B3F1807F01D301230FE00A4A7B68013B7F
:100C780053600F214FF0FF30FFF78EFF054B002226
:100C88009A60044B07221A60002318460837BD46AD
:100C980080BD00BF10E000E080B582B000AF786092
:100CA8007868FFF747FF00BF0837BD4680BD80B5AD
:100CB80086B000AF0346B9607A60FB81FFF75EFF3C
:100CC80078617A68B9687869FFF790FF0246B7F9E2
:100CD8000E3011461846FFF75FFF00BF1837BD46B4
:100CE80080BD80B582B000AF78607868FFF7B2FF4A
:100CF800034618460837BD4680BD000080B489B059
:100D080000AF786039600023FB61894B7B6194E117
:100D18003B681A680121FB6901FA03F313403B6140
:100D28003B69002B00F086813B685B6803F0030396
:100D3800012B05D03B685B6803F00303022B30D11D
:100D48007B689B68BB61FB695B00032202FA03F3C3
:100D5800DB43BA691340BB613B68DA68FB695B0037
:100D680002FA03F3BA691343BB617B68BA699A60F4
:100D78007B685B68BB610122FB6902FA03F3DB4312
:100D8800BA691340BB613B685B681B0903F0010249
:100D9800FB6902FA03F3BA691343BB617B68BA695A
:100DA8005A603B685B6803F00303032B17D07B682A
:100DB800DB68BB61FB695B00032202FA03F3DB43D8
:100DC800BA691340BB613B689A68FB695B0002FA29
:100DD80003F3BA691343BB617B68BA69DA603B689D
:100DE8005B6803F00303022B23D1FB69DA087B68F5
:100DF800083253F82230BB61FB6903F007039B00FC
:100E08000F2202FA03F3DB43BA691340BB613B6864
:100E18001A69FB6903F007039B0002FA03F3BA6936
:100E28001343BB61FB69DA087B680832B96943F888
:100E380022107B681B68BB61FB695B00032202FA16
:100E480003F3DB43BA691340BB613B685B6803F09B
:100E58000302FB695B0002FA03F3BA691343BB613F
:100E68007B68BA691A603B685B6803F44033002BFF
:100E780000F0E0802F4BD3F8F4302E4A43F0020301
:100E8800C2F8F4302B4BD3F8F43003F00203FB60C4
:100E9800FB68294AFB699B08023352F82330BB617F
:100EA800FB6903F003039B000F2202FA03F3DB4301
:100EB800BA691340BB617B68204A934252D07B6871
:100EC8001F4A934231D07B681E4A93422BD07B68DD
:100ED8001D4A934225D07B681C4A93421FD07B68E9
:100EE8001B4A934219D07B681A4A934213D07B68F5
:100EF800194A93420DD07B68184A934207D07B6801
:100F0800174A934201D109232DE00A232BE0082335
:100F180029E0072327E0062325E0052323E004230F
:100F280021E003231FE002231DE001231BE000BF93
:100F3800800000580044025800040058000002587D
:100F48000004025800080258000C02580010025809
:100F58000014025800180258001C025800200258B9
:100F6800002402580023FA6902F003029200934019
:100F7800BA691343BB613849FB699B080233BA69F4
:100F880041F823204FF0B0431B68BB613B69DB434A
:100F9800BA691340BB613B685B6803F48013002B9C
:100FA80003D0BA693B691343BB614FF0B042BB69D8
:100FB80013604FF0B0435B68BB613B69DB43BA69C0
:100FC8001340BB613B685B6803F40013002B03D03C
:100FD800BA693B691343BB614FF0B042BB695360C8
:100FE8007B695B68BB613B69DB43BA691340BB61E2
:100FF8003B685B6803F40033002B03D0BA693B6994
:101008001343BB617B69BA695A607B691B68BB6122
:101018003B69DB43BA691340BB613B685B6803F417
:101028008033002B03D0BA693B691343BB617B69EA
:10103800BA691A60FB690133FB613B681A68FB698E
:1010480022FA03F3002B7FF463AE00BF00BF2437FE
:10105800BD465DF8047B70470004005880B485B035
:1010680000AF78600B467B807B685B69FB607A88A1
:10107800FB6813401A04FB68D9437B880B401A436A
:101088007B689A6100BF1437BD465DF8047B7047E2
:1010980080B584B000AF7860194BDB6803F00403B7
:1010A800042B0AD0164BDB6803F007037A689A42D0
:1010B80001D001231FE000231DE0114BDB6823F062
:1010C80007020F497B681343CB60FFF7F7FCF86012
:1010D80009E0FFF7F3FC0246FB68D31AB3F57A7F01
:1010E80001D9012307E0064B5B6803F40053B3F50D
:1010F800005FEED1002318461037BD4680BD00BF03
:101108000048025880B586B002AF7860FFF7D6FC79
:10111800F8607B68002B01D101235FE07B6893F8BE
:101128004130DBB2002B07D1786805F055F841F261
:101138008831786800F02EFA7B681B681B6823F4F6
:10114800F8517B689B68013B1A027B681B680A435D
:101158001A607B689B6C0093FB68002220217868EA
:1011680000F026FA0346FB72FB7A002B35D17B6828
:101178001B681A681B4B13407A68526811067A6814
:10118800D26811437A68D26911437A68126A1143A6
:101198007A6812680B4313607B681B685A68124BA5
:1011A80013407A68126911047A68526911437A689F
:1011B800926911437A6812680B4353607B681B6815
:1011C8001A687B681B6842F001021A607B6800227B
:1011D8005A647B68012283F84120FB7A184610374D
:1011E800BD4680BD2FFFFF00FEF8E0FF80B588B048
:1011F80002AFF860B9607A60FFF760FC3861FB689D
:1012080093F84030DBB2012B01D1022348E0FB68A0
:10121800012283F84020FB6893F84130DBB2012BB0
:1012280037D1FB6800225A64FB68022283F8412008
:101238007B6800933B6900222021F86800F0B8F928
:101248000346FB75FB7D002B25D10022B968F868A1
:1012580000F0E5F9BB685B6A002B15D17B68009349
:101268003B6901220221F86800F0A2F90346FB75E8
:10127800FB7D002B0FD1FB681B680222DA60FB683C
:10128800012283F8412006E0FB68012283F841200F
:1012980001E00223FB75FB68002283F84020FB7DF8
:1012A80018461837BD4680BD80B58AB002AFF860D1
:1012B800B9607A600023FB77FFF700FCB861FB6830
:1012C8001B689B697B61FB681B6820333B61FB687B
:1012D80093F84030DBB2012B01D102237DE0FB689B
:1012E800012283F84020FB6893F84130DBB2012BE0
:1012F8006CD1FB6800225A64BB68002B5DD0FB6888
:10130800222283F84120FB681B681B695A1CFB6872
:101318009A63FB681B681B695A1CFB685A63FB6865
:10132800BA681A63FB681B685B6923F04062FB6854
:101338001B6842F080625A61FB681B687A699A618F
:101348001CE07B680093BB6901220621F86800F065
:101358002FF90346FB77FB7F002B14D1FB681B6B2F
:101368003A691278D2B21A70FB681B6B5A1CFB6878
:101378001A63FB689B6B5A1EFB689A63FB689B6B3E
:10138800002BDED100E000BFFB7F002B10D17B6873
:101398000093BB6901220221F86800F009F90346AD
:1013A800FB77FB7F002B03D1FB681B680222DA6006
:1013B800FB68012283F841200AE0FB685B6C43F07C
:1013C8000802FB685A640123FB7701E00223FB77DC
:1013D800FB68002283F84020FB7F18462037BD4673
:1013E80080BD80B588B002AFF860B9607A603B60B4
:1013F800FFF764FB3861FB6893F84030DBB2012BE0
:1014080001D1022360E0FB68012283F84020FB68D9
:1014180093F84130DBB2012B4FD1FB6800225A64AC
:10142800FB68422283F841203B6800933B69002215
:101438002021F86800F0BCF80346FB75FB7D002B03
:101448003DD1FB681B687A6812689A62FB681B6862
:101458007A6852685A62FB681B687A689268DA622E
:10146800FB681B681B6823F440027B681B691A43EE
:10147800FB681B6842F480021A607B68DA68BB6804
:101488009A624FF00062B968F86800F0C8F83B68E3
:1014980000933B6901220821F86800F089F80346A7
:1014A800FB75FB7D002B0AD1FB681B680822DA60FC
:1014B800FB68012283F8412001E00223FB75FB68E9
:1014C800002283F84020FB7D18461837BD4680BDB2
:1014D80080B588B002AFF860B9607A60FFF7EEFABD
:1014E8003861FB6893F84030DBB2012B01D102234D
:1014F8004CE0FB68012283F84020FB6893F84130F8
:10150800DBB2012B3BD1FB6800225A64FB688222C4
:1015180083F84120FB689B6C00933B6900222021E3
:10152800F86800F045F80346FB75FB7D002B28D1D1
:10153800FB681B681B6823F008017B685A68FB6816
:101548001B680A431A607B685B68082B10D1FB682C
:101558001B687A6812681A63FB681B681022DA60D5
:10156800FB681B681A68FB681B6842F480121A60E3
:101578004FF04062B968F86800F051F801E00223C2
:10158800FB75FB68002283F84020FB7D184618375E
:10159800BD4680BD80B483B000AF786039607B6899
:1015A8003A689A6400BF0C37BD465DF8047B704703
:1015B80080B584B000AFF860B9603B601346FB713A
:1015C8001AE0BB69B3F1FF3F16D0FFF777FA02467E
:1015D8003B68D31ABA699A4202D3BB69002B0BD174
:1015E800FB68042283F84120FB685B6C43F001022E
:1015F800FB685A6401230EE0FB681B689A68BB68A5
:101608001340002B14BF01230023DBB21A46FB79D9
:101618009A42D6D1002318461037BD4680BD80B403
:1016280085B000AFF860B9607A60BB685B6A002B70
:1016380009D07B68B3F1406F05D0BB689A6AFB6834
:101648001B68013A1A61BB689B69002B00F0B980DE
:10165800BB681B6A002B5FD0FB681B68BA6892687E
:10166800DA61BB68DB69002B31D0BB68DA6ABB681A
:101678001B6B1A43BB685B6B1A43BB685B6A1A43F4
:10168800BB685B699B041A43BB681B691A43BB6848
:101698001B6A1A43BB68DB681A43BB68DB691A43D9
:1016A800BB689B691A43BB681B6842EA0301FB6875
:1016B8001B687A680A435A617B68B3F1406F00F08F
:1016C8002E81FB681B68BA6852689A6127E1BB687B
:1016D800DA6ABB681B6B1A43BB685B6B1A43BB684F
:1016E8005B6A1A43BB685B699B041A43BB681B6946
:1016F8001A43BB681B6A1A43BB68DB691A43BB6899
:101708009B691A43BB681B6842EA0301FB681B68B4
:101718007A680A435A6102E1BB68DB69002B2ED064
:10172800BB68DA6ABB681B6B1A43BB685B6B1A43FE
:10173800BB685B6A1A43BB685B699B041A43BB6856
:101748001B6A1A43BB68DB681A43BB68DB691A4328
:10175800BB689B691A43BB681B6842EA0301FB68C4
:101768001B687A680A435A617B68B3F1406F00F0DE
:10177800D680FB681B68BA6852689A61CFE0BB687C
:10178800DA6ABB681B6B1A43BB685B6B1A43BB689E
:101798005B6A1A43BB685B699B041A43BB681B6A94
:1017A8001A43BB68DB691A43BB689B691A43BB6869
:1017B8001B6842EA0301FB681B687A680A435A619E
:1017C800ADE0BB681B6A002B58D0FB681B68BA6881
:1017D8009268DA61BB68DB69002B2DD0BB68DA6AD6
:1017E800BB681B6B1A43BB685B6B1A43BB685B6ABD
:1017F8001A43BB685B699B041A43BB681B691A439D
:10180800BB681B6A1A43BB68DB681A43BB68DB69A1
:101818001A43BB689B6942EA0301FB681B687A6844
:101828000A435A617B68B3F1406F78D0FB681B6844
:10183800BA6852689A6172E0BB68DA6ABB681B6B67
:101848001A43BB685B6B1A43BB685B6A1A43BB6885
:101858005B699B041A43BB681B691A43BB681B6A14
:101868001A43BB68DB691A43BB689B6942EA0301F8
:10187800FB681B687A680A435A6150E0BB68DB69F9
:10188800002B2AD0BB68DA6ABB681B6B1A43BB689B
:101898005B6B1A43BB685B6A1A43BB685B699B0452
:1018A8001A43BB681B6A1A43BB68DB681A43BB68E8
:1018B800DB691A43BB689B6942EA0301FB681B6842
:1018C8007A680A435A617B68B3F1406F27D0FB6896
:1018D8001B68BA6852689A6121E0BB685B6A002B92
:1018E8001DD0BB68DA6ABB681B6B1A43BB685B6BAD
:1018F8001A43BB685B6A1A43BB685B699B041A435B
:10190800BB681B6A1A43BB68DB691A43BB689B69DF
:1019180042EA0301FB681B687A680A435A6100BF00
:101928001437BD465DF8047B7047000080B58CB065
:1019380000AF78607B68002B02D1012300F048BC1F
:101948007B681B6803F00103002B00F08880994B2B
:101958001B6903F03803FB62964B9B6ABB62FB6A08
:10196800102B07D0FB6A182B11D1BB6A03F00303B5
:10197800022B0CD18F4B1B6803F40033002B6DD066
:101988007B685B68002B69D1012300F021BC7B6870
:101998005B68B3F5803F06D1864B1B68854A43F4E4
:1019A800803313602EE07B685B68002B0CD1814B81
:1019B8001B68804A23F4803313607E4B1B687D4A82
:1019C80023F4802313601DE07B685B68B3F5A02FC8
:1019D8000CD1784B1B68774A43F480231360754B0E
:1019E8001B68744A43F4803313600BE0714B1B6827
:1019F800704A23F4803313606E4B1B686D4A23F4DE
:101A0800802313607B685B68002B13D0FFF756F8C0
:101A1800786208E0FFF752F802467B6AD31A642B13
:101A280001D90323D4E3634B1B6803F40033002B71
:101A3800F0D014E0FFF742F8786208E0FFF73EF8CC
:101A480002467B6AD31A642B01D90323C0E3594B9E
:101A58001B6803F40033002BF0D100E000BF7B6863
:101A68001B6803F00203002B00F0CA80514B1B696E
:101A780003F038033B624F4B9B6AFB613B6A002BC8
:101A880007D03B6A182B56D1FB6903F00303002BE0
:101A980051D1484B1B6803F00403002B05D07B6829
:101AA800DB68002B01D1012392E3424B1B6823F032
:101AB80019027B68DB683F4913430B60FEF7FEFFA2
:101AC800786208E0FEF7FAFF02467B6AD31A022B17
:101AD80001D903237CE3374B1B6803F00403002B75
:101AE800F0D0FFF71BF8034641F20302934217D8E0
:101AF8007B681B69402B08D12E4B5B6823F47C3331
:101B08002C4A43F4003353607AE02A4B5B6823F491
:101B18007C327B681B691B03264913434B606FE0CB
:101B2800244B5B6823F0FE427B681B691B06214936
:101B380013434B6064E07B68DB68002B47D01D4B88
:101B48001B6823F019027B68DB681A4913430B6092
:101B5800FEF7B4FF786208E0FEF7B0FF02467B6A42
:101B6800D31A022B01D9032332E3124B1B6803F06B
:101B78000403002BF0D0FEF7D1FF034641F2030225
:101B8800934219D87B681B69402B08D1094B5B68C5
:101B980023F47C33074A43F40033536030E0054BA9
:101BA8005B6823F47C327B681B691B030149134380
:101BB8004B6025E0004402589A4B5B6823F0FE42D4
:101BC8007B681B691B06974913434B6018E0954BCC
:101BD8001B68944A23F001031360FEF76FFF7862D5
:101BE80008E0FEF76BFF02467B6AD31A022B01D985
:101BF8000323EDE28B4B1B6803F00403002BF0D1A9
:101C08007B681B6803F01003002B00F0A980854B4C
:101C18001B6903F03803BB61824B9B6A7B61BB691C
:101C2800082B07D0BB69182B3AD17B6903F0030353
:101C3800012B35D17B4B1B6803F48073002B05D037
:101C48007B68DB69802B01D00123C1E2FEF766FFC8
:101C5800034641F20302934217D87B681B6A202B84
:101C680008D1704B5B6823F0F8436E4A43F0804319
:101C7800536075E06B4B5B6823F0F8427B681B6A26
:101C88009B06684913434B606AE0664BDB6823F0A8
:101C98007C527B681B6A1B0662491343CB605FE07A
:101CA8007B68DB69002B42D05E4B1B685D4A43F0C2
:101CB80080031360FEF702FF786208E0FEF7FEFE7D
:101CC80002467B6AD31A022B01D9032380E2554BC3
:101CD8001B6803F48073002BF0D0FEF71FFF034648
:101CE80041F20302934217D87B681B6A202B08D164
:101CF8004C4B5B6823F0F8434A4A43F080435360F7
:101D08002EE0484B5B6823F0F8427B681B6A9B0611
:101D1800444913434B6023E0424BDB6823F07C5279
:101D28007B681B6A1B063F491343CB6018E03D4B99
:101D38001B683C4A23F080031360FEF7BFFE7862FD
:101D480008E0FEF7BBFE02467B6AD31A022B01D9D4
:101D580003233DE2334B1B6803F48073002BF0D15F
:101D68007B681B6803F00803002B36D07B685B692F
:101D7800002B19D02B4B5B6F2A4A43F001035367A2
:101D8800FEF79CFE786208E0FEF798FE02467B6A42
:101D9800D31A022B01D903231AE2224B5B6F03F0FB
:101DA8000203002BF0D018E01E4B5B6F1D4A23F096
:101DB80001035367FEF782FE786208E0FEF77EFEB5
:101DC80002467B6AD31A022B01D9032300E2154B82
:101DD8005B6F03F00203002BF0D17B681B6803F0F4
:101DE8002003002B39D07B689B69002B1CD00D4B3E
:101DF8001B680C4A43F480531360FEF75FFE786259
:101E080008E0FEF75BFE02467B6AD31A022B01D973
:101E18000323DDE1034B1B6803F40053002BF0D0D0
:101E28001BE000BF004402589B4B1B689A4A23F4EE
:101E380080531360FEF742FE786208E0FEF73EFE2C
:101E480002467B6AD31A022B01D90323C0E1924BC5
:101E58001B6803F40053002BF0D17B681B6803F068
:101E68000403002B00F081808C4B1B688B4A43F4E1
:101E780080731360FEF722FE786208E0FEF71EFE0C
:101E880002467B6AD31A642B01D90323A0E1834B52
:101E98001B6803F48073002BF0D07B689B68012BD0
:101EA80006D17D4B1B6F7C4A43F0010313672DE07D
:101EB8007B689B68002B0CD1774B1B6F764A23F00D
:101EC80001031367744B1B6F734A23F004031367F2
:101ED8001CE07B689B68052B0CD16F4B1B6F6E4A0F
:101EE80043F0040313676C4B1B6F6B4A43F0010309
:101EF80013670BE0684B1B6F674A23F001031367F6
:101F0800654B1B6F644A23F0040313677B689B6867
:101F1800002B15D0FEF7D2FD78620AE0FEF7CEFD61
:101F280002467B6AD31A41F28832934201D90323CD
:101F38004EE1594B1B6F03F00203002BEED014E067
:101F4800FEF7BCFD78620AE0FEF7B8FD02467B6A40
:101F5800D31A41F28832934201D9032338E14E4B18
:101F68001B6F03F00203002BEED17B685B6A002B2A
:101F780000F02D81484B1B6903F03803182B00F043
:101F8800BD807B685B6A022B40F09E80424B1B68D9
:101F9800414A23F080731360FEF790FD786208E0F1
:101FA800FEF78CFD02467B6AD31A022B01D9032364
:101FB8000EE1394B1B6803F00073002BF0D1364B50
:101FC8009A6A374B13407A68916A7A68D26A120122
:101FD8000A43314913438B627B681B6B013BC3F394
:101FE80008027B685B6B013B5B029BB21A437B6810
:101FF8009B6B013B1B0403F4FE031A437B68DB6BFA
:10200800013B1B0603F0FE43234913430B63224B9A
:10201800DB6A214A23F00103D3621F4B5A6B214B21
:1020280013407A68926CD2001B4913434B631A4BD6
:10203800DB6A23F00C027B681B6C17491343CB62E5
:10204800154BDB6A23F002027B685B6C1249134371
:10205800CB62114BDB6A104A43F48033D3620E4BD8
:10206800DB6A0D4A43F40033D3620B4BDB6A0A4A3E
:1020780043F48023D362084BDB6A074A43F0010329
:10208800D362054B1B68044A43F080731360FEF764
:1020980015FD786211E000BF00440258004802585C
:1020A8000CFCFFFF0700FFFFFEF708FD02467B6AF6
:1020B800D31A022B01D903238AE0474B1B6803F08C
:1020C8000073002BF0D082E0434B1B68424A23F098
:1020D80080731360FEF7F2FC786208E0FEF7EEFC0E
:1020E80002467B6AD31A022B01D9032370E03A4BCC
:1020F8001B6803F00073002BF0D168E0364B9B6A35
:102108003B61354B1B6BFB607B685B6A012B31D0F5
:102118003B6903F003027B689B6A9A422AD13B69B8
:102128001B0903F03F027B68DB6A9A4222D1FB68F5
:10213800C3F308027B681B6B013B9A421AD1FB6808
:102148005B0A03F07F027B685B6B013B9A4211D10B
:10215800FB681B0C03F07F027B689B6B013B9A4278
:1021680008D1FB681B0E03F07F027B68DB6B013B29
:102178009A4201D001232BE0174B5B6BDB08C3F3BA
:102188000C033B617B689B6C3A699A421FD0124BE7
:10219800DB6A114A23F00103D362FEF78FFC7862F1
:1021A80000BFFEF78BFC02467B6A9342F9D00A4BCC
:1021B8005A6B0A4B13407A68926CD2000649134353
:1021C8004B63054BDB6A044A43F00103D3620023E7
:1021D80018463037BD4680BD004402580700FFFF4F
:1021E80080B586B000AF786039607B68002B01D17C
:1021F80001239CE18A4B1B6803F00F033A689A425B
:1022080010D9874B1B6823F00F0285493B6813439D
:102218000B60834B1B6803F00F033A689A4201D0A6
:10222800012384E17B681B6803F00403002B10D0B2
:102238007B681A697B4B9B6903F070039A4208D943
:10224800784B9B6923F070027B681B6975491343BF
:102258008B617B681B6803F00803002B10D07B6838
:102268005A69704BDB6903F070039A4208D96D4BC9
:10227800DB6923F070027B685B696A491343CB61B1
:102288007B681B6803F01003002B10D07B689A69E9
:10229800644BDB6903F4E0639A4208D9614BDB695C
:1022A80023F4E0627B689B695E491343CB617B68DA
:1022B8001B6803F02003002B10D07B68DA69594BA8
:1022C8001B6A03F070039A4208D9564B1B6A23F025
:1022D80070027B68DB69534913430B627B681B6898
:1022E80003F00203002B10D07B68DA684D4B9B6922
:1022F80003F00F039A4208D94A4B9B6923F00F0257
:102308007B68DB68474913438B617B681B6803F074
:102318000103002B55D0434B9B6923F470627B6803
:102328009B68404913438B617B685B68022B07D12C
:102338003C4B1B6803F40033002B21D10123F6E04A
:102348007B685B68032B07D1364B1B6803F000736F
:10235800002B15D10123EAE07B685B68012B07D1CC
:10236800304B1B6803F48073002B09D10123DEE096
:102378002C4B1B6803F00403002B01D10123D6E08A
:10238800284B1B6923F007027B685B6825491343C8
:102398000B61FEF793FB78610AE0FEF78FFB0246BC
:1023A8007B69D31A41F28832934201D90323BEE0F4
:1023B8001C4B1B6903F038027B685B68DB009A42A0
:1023C800EBD17B681B6803F00203002B10D07B68FD
:1023D800DA68144B9B6903F00F039A4208D2114B39
:1023E8009B6923F00F027B68DB680E4913438B61FE
:1023F8000B4B1B6803F00F033A689A4214D2084B40
:102408001B6823F00F0206493B6813430B60044B1B
:102418001B6803F00F033A689A4205D0012386E04F
:1024280000200052004402587B681B6803F0040334
:10243800002B10D07B681A693F4B9B6903F070032F
:102448009A4208D23C4B9B6923F070027B681B6957
:10245800394913438B617B681B6803F00803002B21
:1024680010D07B685A69344BDB6903F070039A42D9
:1024780008D2314BDB6923F070027B685B692E4917
:102488001343CB617B681B6803F01003002B10D04B
:102498007B689A69284BDB6903F4E0639A4208D2A7
:1024A800254BDB6923F4E0627B689B69224913436F
:1024B800CB617B681B6803F02003002B10D07B687E
:1024C800DA691D4B1B6A03F070039A4208D21A4B53
:1024D8001B6A23F070027B68DB69174913430B62A0
:1024E80000F034F80246144B9B691B0A03F00F03F3
:1024F8001249CB5C03F01F0322FA03F33B610E4B36
:102508009B6903F00F030D4AD35C03F01F033A697C
:1025180022FA03F30A4A13600A4A3B6913600A4B1A
:102528001B681846FEF780FA0346FB73FB7B1846C8
:102538001837BD4680BD00BF00440258386D0008FA
:1025480068000020640000205C00002080B489B08E
:1025580000AFB34B1B6903F03803182B00F2558109
:1025680001A252F823F000BFD5250008132800085F
:102578001328000813280008132800081328000847
:102588001328000813280008FB2500081328000852
:102598001328000813280008132800081328000827
:1025A800132800081328000801260008132800082B
:1025B8001328000813280008132800081328000807
:1025C800132800081328000807260008944B1B68E6
:1025D80003F02003002B09D0914B1B68DB0803F0A4
:1025E8000303904A22FA03F3BB6111E18D4BBB61EF
:1025F8000EE18D4BBB610BE18C4BBB6108E1884B55
:102608009B6A03F003037B61854B9B6A1B0903F0FC
:102618003F033B61824BDB6A03F00103FB60804BA5
:102628005B6BDB08C3F30C03FA6802FB03F307EEEA
:10263800903AF8EE677AC7ED027A3B69002B00F012
:10264800E1807B69022B00F083807B69022B00F21A
:10265800A1807B69002B03D07B69012B56D099E0C0
:102668006F4B1B6803F02003002B2DD06C4B1B68AD
:10267800DB0803F003036B4A22FA03F37B607B68F1
:1026880007EE903AF8EE676A3B6907EE903AF8EE83
:10269800677A86EEA77A624B1B6BC3F3080307EED3
:1026A800903AF8EE676A97ED026ADFED615AC6EE76
:1026B800257A76EEA77AF7EE006A77EEA67A67EEC5
:1026C800277AC7ED077A87E03B6907EE903AF8EE7C
:1026D800677ADFED586A86EEA77A514B1B6BC3F316
:1026E800080307EE903AF8EE676A97ED026ADFEDA5
:1026F800505AC6EE257A76EEA77AF7EE006A77EE9C
:10270800A67A67EE277AC7ED077A65E03B6907EE98
:10271800903AF8EE677ADFED486A86EEA77A404B82
:102728001B6BC3F3080307EE903AF8EE676A97ED60
:10273800026ADFED3F5AC6EE257A76EEA77AF7EE03
:10274800006A77EEA67A67EE277AC7ED077A43E044
:102758003B6907EE903AF8EE677ADFED386A86EE65
:10276800A77A2F4B1B6BC3F3080307EE903AF8EEDA
:10277800676A97ED026ADFED2E5AC6EE257A76EE85
:10278800A77AF7EE006A77EEA67A67EE277AC7EDA2
:10279800077A21E03B6907EE903AF8EE677ADFEDB9
:1027A800266A86EEA77A1E4B1B6BC3F3080307EE57
:1027B800903AF8EE676A97ED026ADFED1D5AC6EEA9
:1027C800257A76EEA77AF7EE006A77EEA67A67EEB4
:1027D800277AC7ED077A00BF114B1B6B5B0A03F022
:1027E8007F0301333B603B6807EE903AB8EE677AA7
:1027F800D7ED076AC6EE877AFCEEE77A17EE903ACD
:10280800BB6105E00023BB6102E0074BBB6100BF71
:10281800BB6918462437BD465DF8047B704700BF86
:10282800004402580090D00300093D0040787D0123
:10283800000000460024744C0024744A20BCBE4B9F
:1028480080B582B000AFFFF781FE0246104B9B694E
:102858001B0A03F00F030F49CB5C03F01F0322FA96
:1028680003F37B600A4B9B6903F00F03094AD35CAF
:1028780003F01F037A6822FA03F3074A1360074A32
:102888007B681360044B1B6818460837BD4680BD3B
:1028980000440258386D00086800002064000020D9
:1028A80080B500AFFFF7CCFF0246064BDB691B097A
:1028B80003F007030449CB5C03F01F0322FA03F378
:1028C800184680BD00440258386D000880B500AF36
:1028D800FFF7B6FF0246064BDB691B0A03F0070346
:1028E8000449CB5C03F01F0322FA03F3184680BDAA
:1028F80000440258386D00082DE9B04FCAB000AF47
:10290800C7F81401002387F82731002387F82631F8
:10291800D7F81431D3E9002302F00064002554EA03
:10292800050349D0D7F814319B6EB3F5401F2FD05B
:10293800B3F5401F28D8B3F5001F1AD0B3F5001F10
:1029480022D8002B03D0B3F5801F07D01CE0B84B6A
:10295800DB6AB74A43F40033D3621AE0D7F814317C
:1029680008330221184601F08FFC034687F8273107
:102978000FE0D7F8143128330221184601F036FD4C
:10298800034687F8273104E0012387F8273100E060
:1029980000BF97F82731002B0AD1A54B1B6D23F4F4
:1029A8004011D7F814319B6EA14A0B43136503E01D
:1029B80097F8273187F82631D7F81431D3E900235F
:1029C80002F480784FF0000958EA090347D0D7F895
:1029D80014319B6D042B2AD801A252F823F000BFB2
:1029E800FD2900080B2A0008212A00083F2A0008B0
:1029F8003F2A00088E4BDB6A8D4A43F40033D362CA
:102A08001AE0D7F8143108330021184601F03CFCCD
:102A1800034687F827310FE0D7F81431283300210F
:102A2800184601F0E3FC034687F8273104E0012348
:102A380087F8273100E000BF97F82731002B0AD12B
:102A48007B4B1B6D23F00701D7F814319B6D784A37
:102A58000B43136503E097F8273187F82631D7F839
:102A68001431D3E9002302F4007A4FF0000B5AEA3C
:102A78000B034CD0D7F81431DB6DB3F5807F30D021
:102A8800B3F5807F29D8C02B2DD0C02B25D8802B1B
:102A980018D0802B21D8002B02D0402B07D01CE067
:102AA800634BDB6A624A43F40033D3621CE0D7F815
:102AB800143108330021184601F0E6FB034687F875
:102AC800273111E0D7F8143128330021184601F0D6
:102AD8008DFC034687F8273106E0012387F8273164
:102AE80002E000BF00E000BF97F82731002B0AD1B1
:102AF8004F4B1B6D23F4E071D7F81431DB6D4C4A52
:102B08000B43136503E097F8273187F82631D7F888
:102B18001431D3E9002302F48063C7F80831002395
:102B2800C7F80C31D7E942120B46134353D0D7F8F4
:102B38001431D3F8A830B3F5000F35D0B3F5000F32
:102B48002ED8B3F5C00F31D0B3F5C00F28D8B3F5E0
:102B5800800F1AD0B3F5800F22D8002B03D0B3F51D
:102B6800001F07D01CE0324BDB6A314A43F40033C4
:102B7800D3621CE0D7F8143108330021184601F05D
:102B880083FB034687F8273111E0D7F8143128333F
:102B98000021184601F02AFC034687F8273106E091
:102BA800012387F8273102E000BF00E000BF97F853
:102BB8002731002B0BD11E4B9B6D23F46001D7F8F6
:102BC8001431D3F8A8301A4A0B43936503E097F8F9
:102BD800273187F82631D7F81431D3E9002302F4D6
:102BE8000063C7F800310023C7F80431D7E9401261
:102BF8000B46134356D0D7F81431D3F8AC30B3F1A1
:102C0800806F38D0B3F1806F31D8B3F1407F34D0C2
:102C1800B3F1407F2BD8B3F1007F1DD0B3F1007F13
:102C280025D8002B06D0B3F1807F0AD01FE000BF63
:102C380000440258A24BDB6AA14A43F40033D36232
:102C48001CE0D7F8143108330021184601F01CFBAA
:102C5800034687F8273111E0D7F8143128330021CB
:102C6800184601F0C3FB034687F8273106E0012325
:102C780087F8273102E000BF00E000BF97F827314E
:102C8800002B0BD18E4B9B6D23F0E061D7F81431EC
:102C9800D3F8AC308A4A0B43936503E097F82731A1
:102CA80087F82631D7F81431D3E9002302F00073EE
:102CB800C7F8F8300023C7F8FC30D7E93E120B46B6
:102CC80013433AD0D7F81431DB6C302B1FD0302B9C
:102CD80019D8202B0CD0202B15D8002B19D0102B4D
:102CE80011D1774BDB6A764A43F40033D36211E0A3
:102CF800D7F8143108330221184601F0C5FA034603
:102D080087F8273106E0012387F8273102E000BF62
:102D180000E000BF97F82731002B0AD1684BDB6C25
:102D280023F03001D7F81431DB6C654A0B43D364C8
:102D380003E097F8273187F82631D7F81431D3E91B
:102D4800002302F48053C7F8F0300023C7F8F430AA
:102D5800D7E93C120B46134351D0D7F814311B6EF8
:102D6800B3F5804F35D0B3F5804F2ED8B3F5405F1B
:102D780031D0B3F5405F28D8B3F5005F1AD0B3F56A
:102D8800005F22D8002B03D0B3F5805F07D01CE08A
:102D98004B4BDB6A4A4A43F40033D3621CE0D7F852
:102DA800143108330021184601F06EFA034687F8FB
:102DB800273111E0D7F8143128330021184601F0E3
:102DC80015FB034687F8273106E0012387F82731EA
:102DD80002E000BF00E000BF97F82731002B0AD1BE
:102DE800374B1B6D23F4E041D7F814311B6E344A7E
:102DF8000B43136503E097F8273187F82631D7F896
:102E08001431D3E9002302F40053C7F8E830002353
:102E1800C7F8EC30D7E93A120B46134356D0D7F827
:102E280014315B6EB3F5A02F33D0B3F5A02F2CD897
:102E3800B3F5802F2FD0B3F5802F26D8B3F5403FB8
:102E48002BD0B3F5403F20D8B3F5003F12D0B3F5EF
:102E5800003F1AD8002B22D0B3F5803F15D1D7F800
:102E6800143108330121184601F00EFA034687F899
:102E7800273115E0D7F8143128330121184601F01D
:102E8800B5FA034687F827310AE0012387F8273186
:102E980006E000BF04E000BF02E000BF00E000BFA2
:102EA80097F82731002B0DD1054B1B6D23F4E0213A
:102EB800D7F814315B6E024A0B43136506E000BF76
:102EC8000044025897F8273187F82631D7F814318B
:102ED800D3E9002302F48043C7F8E0300023C7F8A1
:102EE800E430D7E938120B46134355D0D7F81431DC
:102EF800D3F8B030B3F1A04F33D0B3F1A04F2CD8F2
:102F0800B3F1804F2FD0B3F1804F26D8B3F1405F93
:102F18002BD0B3F1405F20D8B3F1005F12D0B3F1EA
:102F2800005F1AD8002B22D0B3F1805F15D1D7F8F3
:102F3800143108330121184601F0A6F9034687F831
:102F4800273115E0D7F8143128330121184601F04C
:102F58004DFA034687F827310AE0012387F827311D
:102F680006E000BF04E000BF02E000BF00E000BFD1
:102F780097F82731002B0BD1A34B9B6D23F0E04131
:102F8800D7F81431D3F8B0309F4A0B43936503E068
:102F980097F8273187F82631D7F81431D3E9002379
:102FA80002F40043C7F8D8300023C7F8DC30D7E96B
:102FB80036120B46134337D0D7F814311B6FB3F1D1
:102FC800005F0ED0B3F1005F16D8002B18D0B3F114
:102FD800805F11D18C4BDB6A8B4A43F40033D36298
:102FE8000FE0D7F8143108330121184601F04CF9E5
:102FF800034687F8273104E0012387F8273100E0EA
:1030080000BF97F82731002B0AD17F4B1B6D23F0A7
:103018004051D7F814311B6F7B4A0B43136503E00B
:1030280097F8273187F82631D7F81431D3E90023E8
:1030380002F08073C7F8D0300023C7F8D430D7E93E
:1030480034120B46134339D0D7F814319B6C032B39
:103058001CD801A252F823F09D30000871300008F6
:103068007F3000089D300008674BDB6A664A43F4EE
:103078000033D3620FE0D7F8143108330221184621
:1030880001F002F9034687F8273104E0012387F8A5
:10309800273100E000BF97F82731002B0AD15A4B9F
:1030A800DB6C23F00301D7F814319B6C564A0B43B1
:1030B800D36403E097F8273187F82631D7F814311D
:1030C800D3E9002302F48003C7F8C8300023C7F807
:1030D800CC30D7E932120B46134300F09F804B4B9C
:1030E8001B684A4A43F480731360FDF7E7FCC7F88E
:1030F80020010BE0FDF7E2FC0246D7F82031D31A95
:10310800642B03D9032387F8273105E03F4B1B685D
:1031180003F48073002BEDD097F82731002B79D179
:10312800394B1A6FD7F81431D3F8B430534003F43D
:103138004073002B15D0344B1B6F23F44073C7F832
:103148001C31314B1B6F304A43F4803313672E4BCD
:103158001B6F2D4A23F4803313672B4AD7F81C3191
:103168001367D7F81431D3F8B430B3F5807F18D18A
:10317800FDF7A4FCC7F820010DE0FDF79FFC02460F
:10318800D7F82031D21A41F288339A4203D903235F
:1031980087F8273105E01C4B1B6F03F00203002B57
:1031A800EBD097F82731002B29D1D7F81431D3F871
:1031B800B43003F44073B3F5407F0ED1124B1B6952
:1031C80023F47C51D7F81431D3F8B4301A09104BD2
:1031D80013400D4A0B43136105E00B4B1B690A4A68
:1031E80023F47C531361084B196FD7F81431D3F8C3
:1031F800B430C3F30B03044A0B4313670EE097F88C
:10320800273187F8263109E000440258004802585F
:10321800CFFFFF0097F8273187F82631D7F8143108
:10322800D3E9002302F00103C7F8C0300023C7F830
:10323800C430D7E930120B46134300F08980D7F821
:103248001431DB6F282B6BD801A252F823F000BF92
:1032580031330008293300082933000829330008CE
:1032680029330008293300082933000829330008C6
:10327800FD320008293300082933000829330008E3
:1032880029330008293300082933000829330008A6
:1032980013330008293300082933000829330008AC
:1032A8002933000829330008293300082933000886
:1032B800313300082933000829330008293300086E
:1032C8002933000829330008293300082933000866
:1032D800313300082933000829330008293300084E
:1032E8002933000829330008293300082933000846
:1032F80031330008D7F8143108330121184600F09B
:10330800C3FF034687F827310FE0D7F81431283375
:103318000121184601F06AF8034687F8273104E0CE
:10332800012387F8273100E000BF97F82731002BE9
:103338000AD1BF4B5B6D23F03801D7F81431DB6F2E
:10334800BB4A0B43536503E097F8273187F82631CA
:10335800D7F81431D3E9002302F00203C7F8B830D4
:103368000023C7F8BC30D7E92E120B46134341D0CF
:10337800D7F814319B6F052B24D801A252F823F0FB
:10338800D5330008A1330008B7330008D533000847
:10339800D5330008D5330008D7F814310833012194
:1033A800184600F071FF034687F827310FE0D7F879
:1033B800143128330121184601F018F8034687F81C
:1033C800273104E0012387F8273100E000BF97F890
:1033D8002731002B0AD1964B5B6D23F00701D7F8F4
:1033E80014319B6F924A0B43536503E097F82731DA
:1033F80087F82631D7F81431D3E9002302F0040303
:10340800C7F8B0300023C7F8B430D7E92C120B4600
:10341800134344D0D7F81431D3F89430052B25D86A
:1034280001A252F823F000BF7D3400084934000897
:103438005F3400087D3400087D3400087D340008BE
:10344800D7F8143108330121184600F01DFF034650
:1034580087F827310FE0D7F81431283301211846AF
:1034680000F0C4FF034687F8273104E0012387F8FA
:10347800273100E000BF97F82731002B0BD16C4BA8
:103488009B6D23F00701D7F81431D3F89430684ABC
:103498000B43936503E097F8273187F82631D7F86F
:1034A8001431D3E9002302F02003C7F8A830002321
:1034B800C7F8AC30D7E92A120B46134355D0D7F8D2
:1034C8001431D3F89030B3F1A04F33D0B3F1A04FFB
:1034D8002CD8B3F1804F2FD0B3F1804F26D8B3F159
:1034E800405F2BD0B3F1405F20D8B3F1005F12D01A
:1034F800B3F1005F1AD8002B22D0B3F1805F15D149
:10350800D7F8143108330021184600F0BDFE0346F1
:1035180087F8273115E0D7F81431283302211846E7
:1035280000F064FF034687F827310AE0012387F893
:10353800273106E000BF04E000BF02E000BF00E062
:1035480000BF97F82731002B0BD1394B5B6D23F067
:10355800E041D7F81431D3F89030354A0B4353651E
:1035680003E097F8273187F82631D7F81431D3E9E3
:10357800002302F04003C7F8A0300023C7F8A430A6
:10358800D7E928120B46134358D0D7F81431D3F88B
:103598009C30B3F5A05F33D0B3F5A05F2CD8B3F55A
:1035A800805F2FD0B3F5805F26D8B3F5406F2BD05E
:1035B800B3F5406F20D8B3F5006F12D0B3F5006FA4
:1035C8001AD8002B22D0B3F5806F15D1D7F8143153
:1035D80008330021184600F057FE034687F82731C4
:1035E80015E0D7F8143128330221184600F0FEFE02
:1035F800034687F827310AE0012387F8273106E0D8
:1036080000BF04E000BF02E000BF00E000BF97F881
:103618002731002B0ED1064B9B6D23F4E051D7F8D0
:103628001431D3F89C30024A0B43936506E000BF7F
:103638000044025897F8273187F82631D7F8143113
:10364800D3E9002302F08003C7F898300023C7F8B5
:103658009C30D7E926120B46134355D0D7F81431BE
:10366800D3F8A030B3F5204F33D0B3F5204F2CD882
:10367800B3F5004F2FD0B3F5004F26D8B3F5C04FA0
:103688002BD0B3F5C04F20D8B3F5804F12D0B3F587
:10369800804F1AD8002B22D0B3F5005F15D1D7F888
:1036A800143108330021184600F0EEFD034687F870
:1036B800273115E0D7F8143128330221184600F0D5
:1036C80095FE034687F827310AE0012387F827315A
:1036D80006E000BF04E000BF02E000BF00E000BF5A
:1036E80097F82731002B0BD1A14B9B6D23F4604138
:1036F800D7F81431D3F8A0309D4A0B43936503E003
:1037080097F8273187F82631D7F81431D3E9002301
:1037180002F00803C7F890300023C7F89430D7E9BF
:1037280024120B4613431ED0D7F81431D3F8843033
:10373800B3F5805F0CD1D7F814312833022118462D
:1037480000F054FE0346002B02D0012387F82631EF
:10375800874B5B6D23F44051D7F81431D3F884308C
:10376800834A0B435365D7F81431D3E9002302F099
:103778001003C7F888300023C7F88C30D7E9221225
:103788000B4613431ED0D7F81431D3F89830B3F54D
:10379800807F0CD1D7F8143128330221184600F065
:1037A80025FE0346002B02D0012387F82631704BF3
:1037B8009B6D23F44071D7F81431D3F898306C4AD4
:1037C8000B439365D7F81431D3E9002302F400239F
:1037D800C7F880300023C7F88430D7E920120B4699
:1037E80013433ED0D7F81431D3F8A430B3F5003FD3
:1037F80022D0B3F5003F1BD8002B03D0B3F5803F90
:103808000BD015E0D7F8143108330021184600F022
:103818003BFD034687F827310FE0D7F814312833EA
:103828000221184600F0E2FD034687F8273104E03C
:10383800012387F8273100E000BF97F82731002BD4
:103848000BD14B4B9B6D23F44031D7F81431D3F88F
:10385800A430474A0B43936503E097F8273187F86C
:103868002631D7F81431D3E9002302F48023BB674B
:103878000023FB67D7E91E120B4613433BD0D7F84A
:103888001431D3F88830B3F5401F1FD0B3F5401F6B
:1038980018D8B3F5801F03D0B3F5001F07D011E087
:1038A800334BDB6A324A43F40033D3620FE0D7F874
:1038B800143128330121184600F098FD034687F893
:1038C800273104E0012387F8273100E000BF97F88B
:1038D8002731002B0BD1264B5B6D23F44011D7F811
:1038E8001431D3F88830224A0B43536503E097F824
:1038F800273187F82631D7F81431D3E9002302F4A9
:1039080080333B6700237B67D7E91C120B461343C0
:1039180034D0D7F814311B6D002B03D0B3F5803F9A
:1039280007D011E0124BDB6A114A43F40033D3622B
:103938000EE0D7F8143108330221184600F0A4FC31
:10394800034687F8273103E0012387F8273100BFB2
:1039580097F82731002B0DD1054BDB6C23F4803110
:10396800D7F814311B6D024A0B43D36406E000BF3D
:103978000044025897F8273187F82631D7F81431D0
:10398800D3E9002302F00053BB660023FB66D7E9A6
:103998001A120B4613430CD0D7F8143128330221DE
:1039A800184600F023FD0346002B02D0012387F8B8
:1039B8002631D7F81431D3E9002302F400333B66EB
:1039C80000237B66D7E918120B46134338D0D7F883
:1039D8001431D3F88030B3F5407F18D0B3F5407F69
:1039E80011D8B3F5007F14D0B3F5007F0BD8002BA6
:1039F80011D0B3F5807F06D1C34BDB6AC24A43F4CA
:103A08000033D36208E0012387F8273104E000BFC0
:103A180002E000BF00E000BF97F82731002B0BD170
:103A2800B94B5B6D23F44071D7F81431D3F880306B
:103A3800B54A0B43536503E097F8273187F82631D9
:103A4800D7F81431D3E9002302F48013BB650023AF
:103A5800FB65D7E916120B46134309D0AA4B1B6D19
:103A680023F00041D7F814315B6FA74A0B43136565
:103A7800D7F81431D3E9002302F080533B650023C3
:103A88007B65D7E914120B4613430AD09E4B1B697A
:103A980023F48041D7F81431D3F8B8309A4A0B434D
:103AA8001361D7F81431D3E9002302F40013BB647F
:103AB8000023FB64D7E912120B46134309D0924B3B
:103AC8001B6D23F08071D7F81431DB6E8E4A0B43DF
:103AD8001365D7F81431D3E9002302F080433B641F
:103AE80000237B64D7E910120B4613430ED0864B94
:103AF8001B69854A23F400431361834B1969D7F87E
:103B08001431D3F8BC30804A0B431361D7F8143111
:103B1800D3E9002302F00043BB630023FB63D7E92A
:103B28000E120B46134309D0774BDB6C23F0405140
:103B3800D7F814315B6D744A0B43D364D7F814314A
:103B4800D3E9002302F400033B6300237B63D7E936
:103B58000C120B4613430AD06B4B5B6D23F44001E8
:103B6800D7F81431D3F88C30674A0B435365D7F82C
:103B78001431D3E900230021B96203F00103FB6289
:103B8800D7E90A120B46134311D0D7F8143108337A
:103B98000021184600F078FB034687F8273197F88C
:103BA8002731002B03D097F8273187F82631D7F82B
:103BB8001431D3E900230021396203F002037B6248
:103BC800D7E908120B46134311D0D7F8143108333C
:103BD8000121184600F058FB034687F8273197F86B
:103BE8002731002B03D097F8273187F82631D7F8EB
:103BF8001431D3E900230021B96103F00403FB6108
:103C0800D7E906120B46134311D0D7F814310833FD
:103C18000221184600F038FB034687F8273197F849
:103C28002731002B03D097F8273187F82631D7F8AA
:103C38001431D3E900230021396103F008037B61C3
:103C4800D7E904120B46134311D0D7F8143128339F
:103C58000021184600F0CAFB034687F8273197F879
:103C68002731002B03D097F8273187F82631D7F86A
:103C78001431D3E900230021B96003F01003FB607D
:103C8800D7E902120B46134311D0D7F81431283361
:103C98000121184600F0AAFB034687F8273197F858
:103CA8002731002B03D097F8273187F82631D7F82A
:103CB8001431D3E900230021396003F020037B602D
:103CC800D7E900120B46134311D0D7F81431283323
:103CD8000221184600F08AFB034687F8273197F837
:103CE8002731002B03D097F8273187F8263197F82A
:103CF8002631002B01D1002300E00123184607F5E7
:103D08009477BD46BDE8B08F0044025880B500AF37
:103D1800FEF796FD0246064B1B6A1B0903F00703D4
:103D28000449CB5C03F01F0322FA03F3184680BD55
:103D380000440258386D000880B489B000AF78603C
:103D4800A14B9B6A03F00303BB619F4B9B6A1B0B50
:103D580003F03F037B619C4BDB6A1B0903F0010303
:103D68003B61994BDB6BDB08C3F30C033A6902FB3D
:103D780003F307EE903AF8EE677AC7ED037A7B69AA
:103D8800002B00F01181BB69022B00F08380BB6916
:103D9800022B00F2A180BB69002B03D0BB69012B69
:103DA80056D099E0884B1B6803F02003002B2DD0D8
:103DB800854B1B68DB0803F00303844A22FA03F3EC
:103DC800BB60BB6807EE903AF8EE676A7B6907EE5E
:103DD800903AF8EE677A86EEA77A7B4B9B6BC3F333
:103DE800080307EE903AF8EE676A97ED036ADFED8D
:103DF800785AC6EE257A76EEA77AF7EE006A77EE5D
:103E0800A67A67EE277AC7ED077A87E07B6907EE1F
:103E1800903AF8EE677ADFED6F6A86EEA77A6A4B1A
:103E28009B6BC3F3080307EE903AF8EE676A97EDC9
:103E3800036ADFED675AC6EE257A76EEA77AF7EEC3
:103E4800006A77EEA67A67EE277AC7ED077A65E00B
:103E58007B6907EE903AF8EE677ADFED5F6A86EEE7
:103E6800A77A594B9B6BC3F3080307EE903AF8EE19
:103E7800676A97ED036ADFED565AC6EE257A76EE45
:103E8800A77AF7EE006A77EEA67A67EE277AC7ED8B
:103E9800077A43E07B6907EE903AF8EE677ADFED40
:103EA8004F6A86EEA77A484B9B6BC3F3080307EE6D
:103EB800903AF8EE676A97ED036ADFED455AC6EE69
:103EC800257A76EEA77AF7EE006A77EEA67A67EE9D
:103ED800277AC7ED077A21E07B6907EE903AF8EE7A
:103EE800677ADFED3D6A86EEA77A374B9B6BC3F3A3
:103EF800080307EE903AF8EE676A97ED036ADFED7C
:103F0800345AC6EE257A76EEA77AF7EE006A77EE8F
:103F1800A67A67EE277AC7ED077A00BF2A4B9B6B14
:103F28005B0A03F07F0307EE903AF8EE677AB7EE84
:103F3800007A37EE877AD7ED076AC6EE877AFCEE05
:103F4800E77A17EE902A7B681A601F4B9B6B1B0C55
:103F580003F07F0307EE903AF8EE677AB7EE007A3F
:103F680037EE877AD7ED076AC6EE877AFCEEE77AEE
:103F780017EE902A7B685A60134B9B6B1B0E03F05D
:103F88007F0307EE903AF8EE677AB7EE007A37EEDD
:103F9800877AD7ED076AC6EE877AFCEEE77A17EEDE
:103FA800902A7B689A6008E07B6800221A607B6828
:103FB80000225A607B6800229A6000BF2437BD4601
:103FC8005DF8047B704700BF004402580090D0039E
:103FD800000000460024744C0024744A20BCBE4BE8
:103FE80080B489B000AF7860A14B9B6A03F00303EB
:103FF800BB619F4B9B6A1B0D03F03F037B619C4B8E
:10400800DB6A1B0A03F001033B61994B5B6CDB081D
:10401800C3F30C033A6902FB03F307EE903AF8EE98
:10402800677AC7ED037A7B69002B00F01181BB69C1
:10403800022B00F08380BB69022B00F2A180BB69D0
:10404800002B03D0BB69012B56D099E0884B1B6825
:1040580003F02003002B2DD0854B1B68DB0803F0F1
:104068000303844A22FA03F3BB60BB6807EE903A65
:10407800F8EE676A7B6907EE903AF8EE677A86EEA3
:10408800A77A7B4B1B6CC3F3080307EE903AF8EE54
:10409800676A97ED036ADFED785AC6EE257A76EE01
:1040A800A77AF7EE006A77EEA67A67EE277AC7ED69
:1040B800077A87E07B6907EE903AF8EE677ADFEDDA
:1040C8006F6A86EEA77A6A4B1B6CC3F3080307EE88
:1040D800903AF8EE676A97ED036ADFED675AC6EE25
:1040E800257A76EEA77AF7EE006A77EEA67A67EE7B
:1040F800277AC7ED077A65E07B6907EE903AF8EE14
:10410800677ADFED5F6A86EEA77A594B1B6CC3F3BB
:10411800080307EE903AF8EE676A97ED036ADFED59
:10412800565AC6EE257A76EEA77AF7EE006A77EE4B
:10413800A67A67EE277AC7ED077A43E07B6907EE30
:10414800903AF8EE677ADFED4F6A86EEA77A484B29
:104158001B6CC3F3080307EE903AF8EE676A97ED15
:10416800036ADFED455AC6EE257A76EEA77AF7EEB2
:10417800006A77EEA67A67EE277AC7ED077A21E01C
:104188007B6907EE903AF8EE677ADFED3D6A86EED6
:10419800A77A374B1B6CC3F3080307EE903AF8EE87
:1041A800676A97ED036ADFED345AC6EE257A76EE34
:1041B800A77AF7EE006A77EEA67A67EE277AC7ED58
:1041C800077A00BF2A4B1B6C5B0A03F07F0307EEDC
:1041D800903AF8EE677AB7EE007A37EE877AD7ED3D
:1041E800076AC6EE877AFCEEE77A17EE902A7B68B4
:1041F8001A601F4B1B6C1B0C03F07F0307EE903AF1
:10420800F8EE677AB7EE007A37EE877AD7ED076A65
:10421800C6EE877AFCEEE77A17EE902A7B685A603A
:10422800134B1B6C1B0E03F07F0307EE903AF8EE5E
:10423800677AB7EE007A37EE877AD7ED076AC6EE67
:10424800877AFCEEE77A17EE902A7B689A6008E096
:104258007B6800221A607B6800225A607B68002213
:104268009A6000BF2437BD465DF8047B704700BFE5
:10427800004402580090D003000000460024744C0B
:104288000024744A20BCBE4B80B584B000AF78606F
:1042980039600023FB73534B9B6A03F00303032B22
:1042A80001D1012399E04F4B1B684E4A23F08063EC
:1042B8001360FCF703FCB86008E0FCF7FFFB02465C
:1042C800BB68D31A022B01D9032386E0454B1B6830
:1042D80003F00063002BF0D1424B9B6A23F47C323D
:1042E8007B681B681B033F4913438B627B685B68D1
:1042F800013BC3F308027B689B68013B5B029BB2EE
:104308001A437B68DB68013B1B0403F4FE031A4372
:104318007B681B69013B1B0603F0FE4331491343CD
:104328008B63304BDB6A23F0C0027B685B692D49E5
:104338001343CB622B4BDB6A23F020027B689B691B
:1043480028491343CB62274BDB6A264A23F0100324
:10435800D362244BDA6B244B13407A68D269D200BB
:1043680020491343CB631F4BDB6A1E4A43F01003FB
:10437800D3623B68002B06D11A4BDB6A194A43F417
:104388000023D3620FE03B68012B06D1154BDB6A93
:10439800144A43F48013D36205E0124BDB6A114AD6
:1043A80043F40013D3620F4B1B680E4A43F080633B
:1043B8001360FCF783FBB86008E0FCF77FFB02465C
:1043C800BB68D31A022B01D9032306E0054B1B68EF
:1043D80003F00063002BF0D0FB7B18461037BD4676
:1043E80080BD00BF004402580700FFFF80B584B0BD
:1043F80000AF786039600023FB73534B9B6A03F06E
:104408000303032B01D1012399E04F4B1B684E4A4C
:1044180023F080531360FCF751FBB86008E0FCF709
:104428004DFB0246BB68D31A022B01D9032386E051
:10443800454B1B6803F00053002BF0D1424B9B6A9D
:1044480023F07C727B681B681B053F4913438B6212
:104458007B685B68013BC3F308027B689B68013B90
:104468005B029BB21A437B68DB68013B1B0403F4C5
:10447800FE031A437B681B69013B1B0603F0FE43DE
:10448800314913430B64304BDB6A23F440627B6889
:104498005B692D491343CB622B4BDB6A23F4007213
:1044A8007B689B6928491343CB62274BDB6A264A02
:1044B80023F48073D362244B5A6C244B13407A68DC
:1044C800D269D200204913434B641F4BDB6A1E4A52
:1044D80043F48073D3623B68002B06D11A4BDB6A26
:1044E800194A43F48003D3620FE03B68012B06D1DD
:1044F800154BDB6A144A43F40003D36205E0124B00
:10450800DB6A114A43F08073D3620F4B1B680E4A73
:1045180043F080531360FCF7D1FAB86008E0FCF769
:10452800CDFA0246BB68D31A022B01D9032306E051
:10453800054B1B6803F00053002BF0D0FB7B18469B
:104548001037BD4680BD00BF004402580700FFFF7A
:1045580080B584B000AF78607B681B68DB68FB605F
:104568007B681B681B69BB60BB6803F00203002BF8
:1045780020D0FB6803F00203002B1BD07B681B686C
:104588006FF002021A617B6801221A777B681B6848
:104598009B6903F00303002B03D0786800F0E9F867
:1045A80005E0786800F0DBF8786800F0ECF87B68E4
:1045B80000221A77BB6803F00403002B20D0FB68A5
:1045C80003F00403002B1BD07B681B686FF0040208
:1045D8001A617B6802221A777B681B689B6903F45F
:1045E8004073002B03D0786800F0C3F805E07868C2
:1045F80000F0B5F8786800F0C6F87B6800221A77F2
:10460800BB6803F00803002B20D0FB6803F0080305
:10461800002B1BD07B681B686FF008021A617B684F
:1046280004221A777B681B68DB6903F00303002BFD
:1046380003D0786800F09DF805E0786800F08FF8FE
:10464800786800F0A0F87B6800221A77BB6803F04E
:104658001003002B20D0FB6803F01003002B1BD0A5
:104668007B681B686FF010021A617B6808221A7752
:104678007B681B68DB6903F44073002B03D0786800
:1046880000F077F805E0786800F069F8786800F0DD
:104698007AF87B6800221A77BB6803F00103002BC5
:1046A8000CD0FB6803F00103002B07D07B681B6864
:1046B8006FF001021A61786801F04AFCBB6803F0E8
:1046C8008003002B04D1BB6803F40053002B0CD0EB
:1046D800FB6803F08003002B07D07B681B686FF42E
:1046E80002521A61786800F06CF8BB6803F48073B2
:1046F800002B0CD0FB6803F08003002B07D07B68ED
:104708001B686FF480721A61786800F064F8BB68FF
:1047180003F04003002B0CD0FB6803F04003002B90
:1047280007D07B681B686FF040021A61786800F058
:1047380034F8BB6803F02003002B0CD0FB6803F0AF
:104748002003002B07D07B681B686FF020021A61DA
:10475800786800F02CF800BF1037BD4680BD80B4E3
:1047680083B000AF786000BF0C37BD465DF8047BAE
:10477800704780B483B000AF786000BF0C37BD4687
:104788005DF8047B704780B483B000AF786000BFE9
:104798000C37BD465DF8047B704780B483B000AF2A
:1047A800786000BF0C37BD465DF8047B704780B465
:1047B80083B000AF786000BF0C37BD465DF8047B5E
:1047C800704780B483B000AF786000BF0C37BD4637
:1047D8005DF8047B704780B483B000AF786000BF99
:1047E8000C37BD465DF8047B704780B582B000AFDA
:1047F80078607B68002B01D1012342E07B68D3F805
:104808008830002B06D17B68002283F884207868E2
:1048180001F086FD7B682422C3F888207B681B682A
:104828001A687B681B6822F001021A607B689B6A21
:10483800002B02D0786800F01FFE786800F0B4F80A
:104848000346012B01D101231BE07B681B685A68D2
:104858007B681B6822F490425A607B681B689A68E0
:104868007B681B6822F02A029A607B681B681A68BA
:104878007B681B6842F001021A60786800F09EFEAF
:10488800034618460837BD4680BD80B58AB002AFDA
:10489800F860B9603B601346FB80FB68D3F888304A
:1048A800202B7BD1BB68002B02D0FB88002B01D1C9
:1048B800012374E0FB680022C3F89020FB682122E2
:1048C800C3F88820FCF7FAF87861FB68FA88A3F83F
:1048D8005420FB68FA88A3F85620FB689B68B3F558
:1048E800805F08D1FB681B69002B04D10023FB61A2
:1048F800BB68BB6103E0BB68FB610023BB6130E0C0
:104908003B6800937B6900228021F86800F000FF73
:104918000346002B05D0FB682022C3F88820032318
:104928003DE0FB69002B0BD1BB691B881A46FB686D
:104938001B68C2F308029A62BB690233BB6107E0D5
:10494800FB691A78FB681B689A62FB690133FB6193
:10495800FB68B3F856309BB2013B9AB2FB68A3F8E8
:104968005620FB68B3F856309BB2002BC8D13B6881
:1049780000937B6900224021F86800F0C9FE0346D5
:10498800002B05D0FB682022C3F88820032306E00B
:10499800FB682022C3F88820002300E00223184681
:1049A8002037BD4680BD00002DE9B04F92B000AF62
:1049B8007861002387F842307B699A687B691B69B4
:1049C8001A437B695B691A437B69DB6913437B6420
:1049D8007B691B681A68BE4B13407A691268796C48
:1049E8000B4313607B691B685B6823F440517B6948
:1049F800DA687B691B680A435A607B699B697B6438
:104A08007B691B68B34A934204D07B691B6A7A6C42
:104A180013437B647B691B689A68AF4B13407A69C0
:104A28001268796C0B4393607B691B68DB6A23F01F
:104A38000F017B695A6A7B691B680A43DA627B69E2
:104A48001B68A64A934277D1A54B5B6D03F03803E8
:104A5800282B6DD801A252F823F000BF094B00089B
:104A6800394B0008394B0008394B0008394B00080E
:104A7800394B0008394B0008394B0008114B000826
:104A8800394B0008394B0008394B0008394B0008EE
:104A9800394B0008394B0008394B0008194B0008FE
:104AA800394B0008394B0008394B0008394B0008CE
:104AB800394B0008394B0008394B0008214B0008D6
:104AC800394B0008394B0008394B0008394B0008AE
:104AD800394B0008394B0008394B0008294B0008AE
:104AE800394B0008394B0008394B0008394B00088E
:104AF800394B0008394B0008394B0008314B000886
:104B0800012387F8433022E2042387F843301EE26A
:104B1800082387F843301AE2102387F8433016E257
:104B2800202387F8433012E2402387F843300EE20F
:104B3800802387F843300AE27B691B68694A9342FD
:104B480030D1674B5B6D03F00703052B26D801A214
:104B580052F823F0754B00087D4B0008854B000880
:104B68008D4B0008954B00089D4B0008002387F8E3
:104B78004330ECE1042387F84330E8E1082387F861
:104B88004330E4E1102387F84330E0E1202387F83D
:104B98004330DCE1402387F84330D8E1802387F8AD
:104BA8004330D4E17B691B684F4A934230D14C4B68
:104BB8005B6D03F00703052B26D801A252F823F0FA
:104BC800E14B0008E94B0008F14B0008F94B0008DD
:104BD800014C0008094C0008002387F84330B6E16F
:104BE800042387F84330B2E1082387F84330AEE165
:104BF800102387F84330AAE1202387F84330A6E141
:104C0800402387F84330A2E1802387F843309EE1B0
:104C18007B691B68354A934230D1314B5B6D03F099
:104C28000703052B26D801A252F823F04D4C0008A3
:104C3800554C00085D4C0008654C00086D4C000898
:104C4800754C0008002387F8433080E1042387F877
:104C580043307CE1082387F8433078E1102387F854
:104C6800433074E1202387F8433070E1402387F80C
:104C780043306CE1802387F8433068E17B691B6827
:104C88001B4A934242D1164B5B6D03F00703052B79
:104C980038D801A252F823F0B94C0008C14C0008DA
:104CA800C94C0008D14C0008FD4C0008054D00080F
:104CB800002387F843304AE1042387F8433046E16C
:104CC800082387F8433042E1102387F843303EE158
:104CD800F369FFCF000C0058FFF4FF1100100140EA
:104CE800004402580044004000480040004C004086
:104CF80000500040202387F8433028E1402387F8FC
:104D0800433024E1802387F8433020E17B691B6826
:104D1800CB4A934276D1CB4B5B6D03F03803282BFB
:104D28006CD801A252F823F0D54D0008054E0008B2
:104D3800054E0008054E0008054E0008054E0008FF
:104D4800054E0008054E0008DD4D0008054E000818
:104D5800054E0008054E0008054E0008054E0008DF
:104D6800054E0008054E0008E54D0008054E0008F0
:104D7800054E0008054E0008054E0008054E0008BF
:104D8800054E0008054E0008ED4D0008054E0008C8
:104D9800054E0008054E0008054E0008054E00089F
:104DA800054E0008054E0008F54D0008054E0008A0
:104DB800054E0008054E0008054E0008054E00087F
:104DC800054E0008054E0008FD4D0008012387F830
:104DD8004330BCE0042387F84330B8E0082387F861
:104DE8004330B4E0102387F84330B0E0202387F83D
:104DF8004330ACE0402387F84330A8E0802387F8AD
:104E08004330A4E07B691B688F4A934230D18D4BB5
:104E18005B6D03F00703052B26D801A252F823F097
:104E2800414E0008494E0008514E0008594E0008EE
:104E3800614E0008694E0008002387F8433086E079
:104E4800042387F8433082E0082387F843307EE064
:104E5800102387F843307AE0202387F8433076E040
:104E6800402387F8433072E0802387F843306EE0B0
:104E78007B691B68754A934230D1724B5B6D03F0B6
:104E88000703052B26D801A252F823F0AD4E0008DF
:104E9800B54E0008BD4E0008C54E0008CD4E0008AE
:104EA800D54E0008002387F8433050E0042387F8E4
:104EB80043304CE0082387F8433048E0102387F854
:104EC800433044E0202387F8433040E0402387F80C
:104ED80043303CE0802387F8433038E07B691B6827
:104EE8005B4A934230D1574B9B6D03F00703052B68
:104EF80026D801A252F823F0194F0008214F0008C4
:104F0800294F0008314F0008394F0008414F000869
:104F1800022387F843301AE0042387F8433016E069
:104F2800082387F8433012E0102387F843300EE057
:104F3800202387F843300AE0402387F8433006E00F
:104F4800802387F8433002E0802387F843307B6969
:104F58001B683F4A934240F0F88097F84330202B73
:104F680046DC022BC0F28280023B1E2B7ED801A2B7
:104F780052F823F0FF4F000875500008075000084A
:104F88007550000875500008755000081750000843
:104F980075500008755000087550000875500008D5
:104FA8007550000875500008755000082750000813
:104FB80075500008755000087550000875500008B5
:104FC80075500008755000087550000875500008A5
:104FD8007550000875500008755000087550000895
:104FE8007550000875500008755000086750000893
:104FF800402B37D03AE0FEF789FEF8633CE007F132
:1050080024031846FEF798FEBB6AFB6334E007F1F9
:1050180018031846FEF7E4FFFB69FB632CE0094B15
:105028001B6803F02003002B16D0064B1B68DB0817
:1050380003F00303074A22FA03F3FB631CE000BFF3
:10504800001401400044025800780040007C0040F1
:10505800000C00580090D0039D4BFB630CE09D4B67
:10506800FB6309E04FF40043FB6305E00023FB63A7
:10507800012387F8423000BFFB6B002B00F0DE8174
:105088007B695B6A944A32F813301A46FB6BB3FBB0
:10509800F2F33B637B695A6813465B0013443A6B2F
:1050A8009A4205D37B695B681B033A6B9A4203D922
:1050B800012387F84230C1E1FB6B0022BB60FA6034
:1050C8007B695B6A844A32F813309BB200223B60EA
:1050D8007A60D7E90023D7E90201FBF7D9F802463D
:1050E8000B46104619464FF000024FF000030B0222
:1050F80043EA1063020279694968490800200C46AE
:10510800054612EB040843EB05097B695B6800223E
:105118009A46934652465B4640464946FBF7B8F8DE
:1051280002460B461346BB63BB6BB3F5407F08D3FF
:10513800BB6BB3F5801F04D27B691B68BA6BDA605E
:105148007CE1012387F8423078E17B69DB69B3F5BC
:10515800004F40F0C58097F84330202B48DC002BE7
:105168007BDB202B79D801A252F823F0FF510008ED
:105178000752000863520008635200080F520008E3
:105188006352000863520008635200081F52000867
:105198006352000863520008635200086352000813
:1051A8006352000863520008635200082F52000837
:1051B80063520008635200086352000863520008F3
:1051C80063520008635200086352000863520008E3
:1051D80063520008635200086352000863520008D3
:1051E80063520008635200086352000855520008D1
:1051F800402B2ED031E0FDF753FBF86333E0FDF789
:1052080065FBF8632FE007F124031846FEF794FDC9
:10521800BB6AFB6327E007F118031846FEF7E0FEB8
:10522800FB69FB631FE02D4B1B6803F02003002B79
:1052380009D02A4B1B68DB0803F00303244A22FA2F
:1052480003F3FB630FE0224BFB630CE0214BFB6392
:1052580009E04FF40043FB6305E00023FB630123EF
:1052680087F8423000BFFB6B002B00F0E7807B69BA
:105278005B6A194A32F813301A46FB6BB3FBF2F338
:105288005A007B695B685B081A447B695B68B2FB00
:10529800F3F3BB63BB6B0F2B16D9BB6BB3F5803F26
:1052A80012D2BB6B9BB223F00F03FB86BB6B5B0870
:1052B8009BB203F007039AB2FB8E1343FB867B690C
:1052C8001B68FA8EDA60B9E0012387F84230B5E04E
:1052D8000090D00300093D00106D000800440258FA
:1052E80097F84330202B49DC002B7CDB202B7AD825
:1052F80001A252F823F000BF8B5300089353000813
:10530800EF530008EF5300089B530008EF530008C1
:10531800EF530008EF530008AB530008EF530008A1
:10532800EF530008EF530008EF530008EF5300084D
:10533800EF530008EF530008BB530008EF53000871
:10534800EF530008EF530008EF530008EF5300082D
:10535800EF530008EF530008EF530008EF5300081D
:10536800EF530008EF530008EF530008EF5300080D
:10537800EF530008EF530008E1530008402B2ED0EC
:1053880031E0FDF78DFAF86333E0FDF79FFAF86333
:105398002FE007F124031846FEF7CEFCBB6AFB6337
:1053A80027E007F118031846FEF71AFEFB69FB63AE
:1053B8001FE02D4B1B6803F02003002B09D02A4B5C
:1053C8001B68DB0803F00303284A22FA03F3FB6394
:1053D8000FE0264BFB630CE0254BFB6309E04FF421
:1053E8000043FB6305E00023FB63012387F8423099
:1053F80000BFFB6B002B21D07B695B6A1D4A32F82A
:1054080013301A46FB6BB3FBF2F27B695B685B08EF
:105418001A447B695B68B2FBF3F3BB63BB6B0F2B6E
:1054280009D9BB6BB3F5803F05D2BB6B9AB27B69D8
:105438001B68DA6002E0012387F842307B690122A9
:10544800A3F86A207B690122A3F868207B690022FF
:105458005A677B6900229A6797F84230184648379E
:10546800BD46BDE8B08F00BF004402580090D0038D
:1054780000093D00106D000880B483B000AF78606B
:105488007B689B6A03F00803002B0AD07B681B68C3
:105498005B6823F400417B689A6B7B681B680A434E
:1054A8005A607B689B6A03F00103002B0AD07B6873
:1054B8001B685B6823F400317B68DA6A7B681B68C9
:1054C8000A435A607B689B6A03F00203002B0AD0E8
:1054D8007B681B685B6823F480317B681A6B7B6888
:1054E8001B680A435A607B689B6A03F00403002B1D
:1054F8000AD07B681B685B6823F480217B685A6B41
:105508007B681B680A435A607B689B6A03F0100338
:10551800002B0AD07B681B689B6823F480517B684A
:10552800DA6B7B681B680A439A607B689B6A03F0A6
:105538002003002B0AD07B681B689B6823F400516A
:105548007B681A6C7B681B680A439A607B689B6A55
:1055580003F04003002B1AD07B681B685B6823F4B8
:1055680080117B685A6C7B681B680A435A607B68A9
:105578005B6CB3F5801F0AD17B681B685B6823F4FA
:10558800C0017B689A6C7B681B680A435A607B6819
:105598009B6A03F08003002B0AD07B681B685B685A
:1055A80023F400217B68DA6C7B681B680A435A6025
:1055B80000BF0C37BD465DF8047B704780B598B0D6
:1055C80002AF78607B680022C3F89020FBF776FA78
:1055D80078657B681B681B6803F00803082B2FD1CC
:1055E8006FF07E4300937B6D00224FF400117868C2
:1055F80000F08EF80346002B22D07B681B68BB6343
:10560800BB6B53E8003F7B637B6B23F080033B65F8
:105618007B681B681A463B6D7B643A64396C7A6C0C
:1056280041E80023FB63FB6B002BE6D17B6820225B
:10563800C3F888207B68002283F88420032363E072
:105648007B681B681B6803F00403042B49D16FF0C7
:105658007E4300937B6D00224FF48001786800F050
:1056680057F80346002B3CD07B681B687B627B6A3B
:1056780053E8003F3B623B6A23F49073FB647B680A
:105688001B681A46FB6C3B63FA62F96A3A6B41E89D
:105698000023BB62BB6A002BE6D17B681B6808331A
:1056A8003B613B6953E8003FFB60FB6823F0010363
:1056B800BB647B681B680833BA6CFA61BB61B96963
:1056C800FA6941E800237B617B69002BE5D17B689F
:1056D8002022C3F88C207B68002283F884200323CF
:1056E80012E07B682022C3F888207B682022C3F858
:1056F8008C207B680022DA667B6800221A677B6848
:10570800002283F88420002318465837BD4680BD00
:1057180080B584B000AFF860B9603B601346FB7198
:105728004FE0BB69B3F1FF3F4BD0FBF7C7F9024627
:105738003B68D31ABA699A4202D3BB69002B01D1DC
:1057480003234EE0FB681B681B6803F00403002B6F
:1057580037D0BB68802B34D0BB68402B31D0FB6876
:105768001B68DB6903F00803082B10D1FB681B6872
:1057780008221A62F86800F039F8FB680822C3F8B2
:105788009020FB68002283F88420012329E0FB682D
:105798001B68DB6903F40063B3F5006F11D1FB6884
:1057A8001B684FF400621A62F86800F01FF8FB6883
:1057B8002022C3F89020FB68002283F8842003236A
:1057C8000FE0FB681B68DA69BB681340BA689A4245
:1057D8000CBF01230023DBB21A46FB799A42A0D002
:1057E800002318461037BD4680BD000080B495B030
:1057F80000AF78607B681B687B637B6B53E8003F76
:105808003B633B6B23F49073FB647B681B681A460D
:10581800FB6C3B64FA63F96B3A6C41E80023BB63A9
:10582800BB6B002BE6D17B681B6808333B623B6A85
:1058380053E8003FFB61FA691E4B1340BB647B6869
:105848001B680833BA6CFA62BB62B96AFA6A41E843
:1058580000237B627B6A002BE5D17B68DB6E012B22
:1058680018D17B681B68FB60FB6853E8003FBB608E
:10587800BB6823F010037B647B681B681A467B6C4B
:10588800BB617A617969BA6941E800233B613B6988
:10589800002BE6D17B682022C3F88C207B6800228D
:1058A800DA667B6800225A6700BF5437BD465DF848
:1058B800047B7047FEFFFFEF80B485B000AF7860CF
:1058C8007B6893F88430012B01D1022327E07B68A1
:1058D800012283F884207B682422C3F888207B680F
:1058E8001B681B68FB607B681B681A687B681B6801
:1058F80022F001021A60FB6823F00053FB607B680A
:1059080000225A667B681B68FA681A607B68202246
:10591800C3F888207B68002283F884200023184677
:105928001437BD465DF8047B704780B584B000AF7E
:10593800786039607B6893F88430012B01D10223A9
:105948002DE07B68012283F884207B682422C3F839
:1059580088207B681B681B68FB607B681B681A686B
:105968007B681B6822F001021A607B681B689B68D1
:1059780023F060417B681B683A680A439A6078683C
:1059880000F050F87B681B68FA681A607B68202270
:10599800C3F888207B68002283F8842000231846F7
:1059A8001037BD4680BD80B584B000AF78603960DF
:1059B8007B6893F88430012B01D102232DE07B68AA
:1059C800012283F884207B682422C3F888207B681E
:1059D8001B681B68FB607B681B681A687B681B6810
:1059E80022F001021A607B681B689B6823F06061E3
:1059F8007B681B683A680A439A60786800F012F876
:105A08007B681B68FA681A607B682022C3F88820C4
:105A18007B68002283F88420002318461037BD468F
:105A280080BD000080B485B000AF78607B685B6E95
:105A3800002B08D17B680122A3F86A207B68012229
:105A4800A3F8682031E01023FB731023BB737B6835
:105A58001B689B685B0EDBB203F007037B737B68F4
:105A68001B689B685B0FDBB203F007033B73BB7BD0
:105A78003A7B11498A5C02FB03F33A7B0F498A5C43
:105A880093FBF2F39AB27B68A3F86A20FB7B7A7BDC
:105A980009498A5C02FB03F37A7B08498A5C93FB19
:105AA800F2F39AB27B68A3F8682000BF1437BD46AA
:105AB8005DF8047B704700BF286D0008306D000852
:105AC80080B588B000AF7C4B5B6903F40033002BD2
